:020000040800F2
:10D000000000012025770108697701086977010888
:10D010006977010869770108697701080000000055
:10D020000000000000000000000000006977010817
:10D03000697701080000000069770108ED6D0108BB
:10D04000197501081B7501081D7501081F75010878
:10D050002175010823750108257501082775010848
:10D06000297501082B7501082D75010839D50008AF
:10D070002F750108317501083375010835750108F0
:10D0800037750108397501083B7501086977010892
:10D090006977010869770108697701083D7501081A
:10D0A0003F75010841750108437501084575010880
:10D0B000697701084775010875E00008497501089E
:10D0C0004B7501084D7501084F7501085175010830
:10D0D0005375010869770108BDED000869770108FB
:10D0E00055750108577501086977010800000000AF
:10D0F0000000000000000000000000000000000030
:10D10000000000000000000069770108697701084D
:10D110006977010869770108597501085B7501088D
:10D12000697701086977010869770108697701085B
:10D13000697701086977010869770108697701084B
:10D14000697701086977010869770108697701083B
:10D1500000000000000000000000000000000000CF
:10D1600000000000000000000000000000000000BF
:10D1700000000000000000000000000000000000AF
:10D18000000000000000000000000000000000009F
:10D19000000000000000000000000000000000008F
:10D1A000000000000000000000000000000000007F
:10D1B000000000000000000000000000000000006F
:10D1C000000000000000000000000000000000005F
:10D1D000000000000000000000000000000000004F
:04D1E0005FF8E0F123
:10D1E8002DE9F04192B04FF01008ADF8048000240A
:10D1F8008DF8074001A94C480AF0B3FA4B4B4FF0A1
:10D2080000051C805C801D719C609C8140F2E731A8
:10D21800D981474A1480474F3C801C825C821D7527
:10D228009C619C83D98354807C80434B1D70434B05
:10D238001D70434B1D70434B434A1A60434E3046A2
:10D248000BF0B0F8424B029303970494022705971A
:10D258000694802307934FF4807308934FF48063F8
:10D26800099320230A934FF400530B930C9402A9BB
:10D2780030460BF02BF9012130460BF044F901221E
:10D28800394630460BF04CF94FF4C0230D93012674
:10D298008DF838608DF839504FF460230F9310944F
:10D2A8008DF844702B4C0DA920460AF0C1FF0723C6
:10D2B8003246042120460BF012F807233A4641462D
:10D2C80020460BF00CF8314620460AF0E0FF3146C4
:10D2D80020460AF0D1FF30460BF054F820460AF0F9
:10D2E800E1FF20460AF0E3FF0028FAD119480AF0C6
:10D2F800E2FF184C20460AF0E3FF0028FAD1104A52
:10D30800137843F0040313700B238DF800300123C6
:10D318008DF801308DF802008DF8033068460AF068
:10D3280049FC12B0BDE8F081000801404423002008
:10D338004023002064230020380000203D00002006
:10D348003C00002030000020CDCC4C3F08000240BB
:10D358004C2401400024014070B5414B1B7813F068
:10D36800080F05D13E4B1B7813F0040F58D170BD40
:10D378003B4B1B7813F0100F4CD13A4E30880BF012
:10D38800D9FD4FF066510BF02DFE0BF043FA002249
:10D39800354B0BF097FA0022344B0BF093FA044606
:10D3A8000D46334B18680BF035FA02460B462046FB
:10D3B80029460BF087FA0BF097FC2E4B18807088E3
:10D3C8000BF016FA20A3D3E900230BF07BFA002216
:10D3D800294B0BF077FA02460B461DA1D1E9000153
:10D3E8000BF0B8F81CA3D3E900230BF095FB00223F
:10D3F8001E4B0BF067FA0BF097FC20490BF0EAFC88
:10D408000BF040FF1E4B1880154A137823F00803D1
:10D418001370A7E7124A137823F010031370ACE7D0
:10D42800184A13780133DBB21370092B9FD90121F5
:10D4380015480AF049FF0A4A137823F004031370C9
:10D44800104B00221A7092E76666666666660A40A6
:10D45800E17A14AE47E1F63F3333333333331140C7
:10D468003C000020402300200080304000408F40D6
:10D4780030000020360000200000303F0000C84186
:10D4880034000020380000200024014000B5531E5D
:10D4980013F0FF0E0FD000EB4E03A0F1020C0CEBC3
:10D4A8004E0C023AD2B2ACEB420C33F8022C23F801
:10D4B80002296345F9D1018000BD012925D92DE94B
:10D4C800F0410D464F1EFFB286460021A5F1020825
:10D4D800861CB94217D0A8EB010C5FFA8CFC8C446F
:10D4E80006EB4C0C73467446BEF8002033F8020F66
:10D4F800824284BF20801A806345F5D101310EF144
:10D50800020EA942E5D1BDE8F08170478C4661B1B1
:10D51800034600EB4101002033F8022B10448B42F4
:10D52800FAD1B0FBFCF080B270470846F9E700007A
:10D53800F8B54B4C4B4E4C4F00252246217900291B
:10D5480040D13288628022804FF001032371A368A2
:10D558001344A3600135022D6ED1444B1B78092B6F
:10D5680027D9424B00221A70414A137843F0080326
:10D5780013700A213C48FFF7A0FF3E4B1C88002C83
:10D588005ED004213C48FFF7C1FF044404EBD47487
:10D59800C4F34F00374C20800A213848FFF78DFF2D
:10D5A8006488002C51D104213548FFF7AFFF314B77
:10D5B800588002200AF0BEFF2D4A137843F0040376
:10D5C8001370F8BD3388208898422BD2238001310C
:10D5D800C8B2107191680B4493600A28BAD91188AF
:10D5E800591A5388C91A0238B1FBF0F1D38903FBE1
:10D5F80001F1244BA3FB0131C1F38F119181002369
:10D60800138053804FF00000107193600A2238464F
:10D61800FFF73CFFEBB2012B09D00135103402367D
:10D6280014378AE76088984288BF6380CFE70F4A3B
:10D6380013780133137090E71034023614377CE7FF
:10D6480004210D48FFF762FFA4E704210C48FFF707
:10D658005DFF044404EBD474C4F34F00A7E700BF94
:10D668004423002064230020400000203D000020C7
:10D678003C000020402300204600002054000020E9
:10D688005A000020D34D621030B583B0124C0122ED
:10D698004FF4806120460AF0C7F801224FF4006178
:10D6A80020460AF0C1F803238DF806304FF4806352
:10D6B800ADF8043010238DF8073001AD2946204617
:10D6C8000AF04FF84FF40063ADF8043029462046BD
:10D6D8000AF047F803B030BD000C014030B583B004
:10D6E800164C01224FF4006120460AF09DF80323EE
:10D6F8008DF8063010238DF807304FF40065ADF82B
:10D70800045001A920460AF02CF801224FF4806148
:10D7180020460AF089F800BF00BF002229462046AB
:10D728000AF082F800BF00BF00224FF48061204653
:10D738000AF07AF800BF00BF03B030BD000C01400A
:10D7480030B583B0124C00224FF4006120460AF035
:10D758006BF803238DF8063010238DF807304FF44B
:10D768000065ADF8045001A9204609F0FAFF01222E
:10D778004FF4806120460AF057F800BF00BF01222D
:10D78800294620460AF050F800BF00BF03B030BD5C
:10D79800000C014030B583B0154C00224FF40061F5
:10D7A80020460AF041F803238DF8063010238DF83F
:10D7B80007304FF40065ADF8045001A9204609F080
:10D7C800D0FF0022294620460AF02EF801224FF405
:10D7D800806120460AF028F800BF00BF00BF00BFE4
:10D7E80000224FF4806120460AF01EF803B030BDD5
:10D7F800000C014010B582B0164C01224FF40061B4
:10D8080020460AF011F803238DF8063010238DF80E
:10D8180007304FF40063ADF8043001A9204609F041
:10D82800A0FF00224FF48061204609F0FDFF01228D
:10D838004FF48061204609F0F7FF00BF00BF00BF2A
:10D8480000BF00224FF48061204609F0EDFF02B0CE
:10D8580010BD00BF000C014030B583B003238DF824
:10D86800063048238DF807304FF40065ADF80450B2
:10D87800114C01A9204609F074FF00224FF4806181
:10D88800204609F0D1FF01224FF48061204609F0BB
:10D89800CBFF00BF2946204609F0C0FF05460022FD
:10D8A8004FF48061204609F0BFFF00BF00BF00BFF2
:10D8B80000BF284603B030BD000C01402DE9F041FF
:10D8C80082B0044603238DF8063010238DF8073004
:10D8D8004FF40063ADF8043001A9154809F041FF81
:10D8E8000825134E00274FF0010814F0800F14BFCD
:10D8F80042463A464FF40061304609F095FF00BFB2
:10D9080000BF42464FF48061304609F08DFF00BFEA
:10D9180000BF3A464FF48061304609F085FF640045
:10D92800E4B26B1E13F0FF05DFD102B0BDE8F08151
:10D93800000C01402DE9F04182B003238DF8063038
:10D9480048238DF807304FF40063ADF8043001A97F
:10D95800184809F006FF08250024164E4FF0010864
:10D968004FF480676400E4B242463946304609F015
:10D978005BFF0A2300BF013B13F0FF03FAD14FF40A
:10D988000061304609F04AFF44F00103DBB2012888
:10D9980008BF1C4600223946304609F045FF00BF43
:10D9A80000BF00BF013D15F0FF05DBD1204602B0E6
:10D9B800BDE8F081000C014010B50446FFF78EFE6B
:10D9C8009020FFF77BFFFFF747FF2046FFF776FF22
:10D9D800FFF742FFFFF7B4FE10BD000008B5FFF7E0
:10D9E80053FE8F20064B1870FFF7E6FF054B002209
:10D9F8001A80054B1A70054B054A1A6008BD00BF0E
:10DA08007C000020720000207400002068000020C4
:10DA180080447C3F10B5FFF761FE9120FFF74EFF71
:10DA2800FFF71AFFFFF786FF4FF0000460F30F249B
:10DA3800FFF7B0FEFFF77EFF60F30704FFF7AAFECB
:10DA4800FFF778FF034B1870FFF7D4FEFFF778FE57
:10DA5800A0B210BD7C000020024A13880133138055
:10DA6800704700BF72000020044B1B88834238BFF8
:10DA780003F1FF33181A80B2704700BF720000200C
:10DA880038B52D4B1888FFF7EFFF0A2800D838BDA6
:10DA9800FFF7C0FF294B188010F4004F39D180B22E
:10DAA800C0F30E000BF046FA25490BF04FFB0AF0C5
:10DAB800B1FE1BA3D3E900230AF004FF1AA3D3E99C
:10DAC80000230AF0FFFE04460D461E4B18680AF0B4
:10DAD800A1FE02460B46204629460AF0F3FE0BF04B
:10DAE80003F983B21C4618460BF024FA0AF092FE9A
:10DAF8000FA3D3E900230BF00FF80BF0F5F880B271
:10DB0800114B1C80114B1880114B1A880A4B1A8034
:10DB1800BDE700231C461846F2E700BFAFF30080BC
:10DB28006666666666660A400000000000889340E4
:10DB38009A9999999999A93F700000207800002036
:10DB480000FEFF46680000206E0000206C000020E8
:10DB580072000020014B1888704700BF6C0000203D
:10DB680010B5074C00224FF40041204609F05CFE36
:10DB780001224FF40041204609F056FE10BD00BFB7
:10DB8800000C01402DE9F0414401A4B20B250F4FD0
:10DB98004FF000084FF480460CE001223146384629
:10DBA80009F042FE6400A4B2FFF7DAFF6B1E13F01F
:10DBB800FF0508D042463146384609F035FE14F4D0
:10DBC800004FEFD0E9E7BDE8F08100BF000C01404D
:10DBD80038B51F4C01224FF48071204609F024FE0D
:10DBE8001C4D01224FF48041284609F01DFEFFF725
:10DBF800B7FF00224FF48041284609F015FEFFF7D1
:10DC0800AFFF00224FF48041284609F00DFEFFF7D0
:10DC1800A7FF4FF4C060FFF7B5FF00224FF48071F3
:10DC2800204609F001FE00224FF48041284609F001
:10DC3800FBFD00BF01224FF48071204609F0F4FD7E
:10DC480000BF00224FF48071204609F0EDFD38BD79
:10DC580000140140000C014070B50646274D012212
:10DC68004FF48071284609F0DFFD254C01224FF45E
:10DC78008041204609F0D8FDFFF772FF01224FF4DA
:10DC88008041204609F0D0FDFFF76AFF01224FF4DA
:10DC98008041204609F0C8FDFFF762FF3046FFF7D4
:10DCA80071FF00224FF48071284609F0BDFD002263
:10DCB8004FF40041204609F0B7FD00224FF480419F
:10DCC800204609F0B1FD00BF01224FF480712846BB
:10DCD80009F0AAFD44F62164094E4FF4005529467F
:10DCE800304609F09BFD08B9013CF8D100224FF4F9
:10DCF8008071024809F098FD70BD00BF0014014012
:10DD0800000C014038B5224D01224FF4807128469D
:10DD180009F08AFD1F4C01224FF48041204609F08A
:10DD280083FDFFF71DFF00224FF48041204609F0D4
:10DD38007BFDFFF715FF00224FF48041204609F0D4
:10DD480073FDFFF70DFF0020FFF71CFF00224FF4C3
:10DD58008071284609F068FD00224FF48041204672
:10DD680009F062FD00224FF40041204609F05CFDF5
:10DD780000BF01224FF48071284609F055FD00BF0D
:10DD880000224FF48071284609F04EFD38BD00BFCF
:10DD980000140140000C01402DE9F041044608251B
:10DDA8000E4F4FF000084FF4804607E06400E4B2DD
:10DDB800FFF7D6FE6B1E13F0FF050DD04246314625
:10DDC800384609F031FD14F0800FEFD001223146BA
:10DDD800384609F029FDE9E7BDE8F081000C01406B
:10DDE800F8B507460E46294D01224FF480712846A2
:10DDF80009F01AFD264C01224FF48041204609F013
:10DE080013FDFFF7ADFE00224FF48041204609F0D4
:10DE18000BFDFFF7A5FE01224FF48041204609F0D3
:10DE280003FDFFF79DFE3846FFF7ACFE3046FFF7CF
:10DE3800B3FF00224FF48071284609F0F5FC002258
:10DE48004FF48041204609F0EFFC00224FF40041D6
:10DE5800204609F0E9FC00BF01224FF480712846F2
:10DE680009F0E2FC44F62164094E4FF400552946B6
:10DE7800304609F0D3FC08B9013CF8D100224FF430
:10DE88008071024809F0D0FCF8BD00BF00140140C1
:10DE9800000C01402DE9F04104460E4617460122C8
:10DEA8004FF48071134809F0BFFCFFF791FE264438
:10DEB800B4420FDAA04625462046FFF7CDFEA5EB73
:10DEC8000805795D2046FFF78BFF0134A4B225468B
:10DED800B442F1DBFFF716FF00224FF480710548CA
:10DEE80009F0A2FC00224FF40041034809F09CFC11
:10DEF800BDE8F08100140140000C0140F8B5082588
:10DF08000024094F4FF40056FFF72AFE6400E4B2DC
:10DF18003146384609F082FC2043C4B26B1E13F028
:10DF2800FF05F1D12046F8BD000C0140F8B50746C1
:10DF38000D46164601224FF480711E4809F074FC04
:10DF48001D4C01224FF48041204609F06DFCFFF77B
:10DF580007FE01224FF48041204609F065FCFFF7D7
:10DF6800FFFD00224FF48041204609F05DFCFFF7D9
:10DF7800F7FD3846FFF706FE00224FF480412046A1
:10DF880009F052FC4DB1741E013DADB23544FFF7A6
:10DF9800B5FF04F8010FAC42F9D100224FF48071AB
:10DFA800044809F041FC00224FF40041024809F0FE
:10DFB8003BFCF8BD00140140000C014070B588B06E
:10DFC800E023ADF8183004238DF81B3006A9254846
:10DFD80009F0C7FB244C204609F0AEFE03AE3146DB
:10DFE800204609F0AFFF4FF6FF73ADF8103000255B
:10DFF800ADF80C50ADF81250ADF80E503146204631
:10E0080009F0A0FF2B462A46032120460AF00CF807
:10E01800684609F0E7FF0823ADF80830694620464E
:10E028000AF05CF8012120460AF0FBF801221146AB
:10E03800204609F0EDFFA5840121204609F0DAFF0A
:10E048001E238DF81C3001238DF81D304FF000027F
:10E058008DF81E208DF81F3007A809F0ABFD08B019
:10E0680070BD00BF000C01400008004010B5054C11
:10E0780040F2012120460AF0D4F80121204609F097
:10E08800B9FF10BD000800402DE9F04180460E465A
:10E0980015461F469DF818403C480AF0BFF83C4B0F
:10E0A80018803C4B1B8898421DD01ED21B1A9BB26D
:10E0B800B3F57C5F26D383F47F4C8CF0FF0C631E92
:10E0C800DBB20CFB04F4A4B2C62B98BFA4462B8881
:10E0D8009C441FFA8CFCB44549D8A5F800C02C4BC9
:10E0E8001A882C4B1A80BDE8F081C01A1FFA80FCF0
:10E0F800BCF57C5FE3D98CF47F4383F0FF03012BED
:10E1080038BF0123621ED2B203FB04F4A4B2C62AAC
:10E1180098BF23462A889A4217D3D21A92B2424508
:10E1280001D32A80DBE7012F01D12E80D7E7A5F89C
:10E138000080164C4FF6FF71204609F09DFF2046DF
:10E148000AF06CF8124B1880C9E7012F01D12E8014
:10E15800C5E7A5F800800D4C4FF6FF71204609F081
:10E168008BFF20460AF05AF8094B1880B7E7012FB1
:10E1780002D1A5F80080B2E72E800021034809F0FB
:10E188007BFF034B00221A80A9E700BF000800406C
:10E19800800000207E000020D1B110B584464418CC
:10E1A8000020DFF830E01CF8013B0101C9B25840FB
:10E1B80000091EF800204A401101C9B203F00F03FC
:10E1C80083EA12131EF803004840A445EBD110BDA2
:10E1D80008467047B896010859282FD852281CD8E5
:10E1E800A0F14003DBB2122B5AD84038122857D876
:10E1F800DFE810F0E5007D007400560056007D0051
:10E208007400E500E500E50079007000560056004E
:10E21800560056008B00700082005338C3B20121AB
:10E2280001FA03F313F0150F40F0C78013F04A0FFB
:10E2380054D1012A0CBF1046022070477D2800F0F7
:10E248009B8015D9962832D810F0800F28D080F0FE
:10E258008000012383406049194000293AD15F4971
:10E268001940002943D141F204410B42E1D117E0A2
:10E27800752811D8602813D9A0F16103DBB20121F8
:10E2880001FA03F356490B4224D156490B422ED1C9
:10E2980013F4C85FCDD103E076281BD07A28C8D004
:10E2A800514A137843F0800313700020704700F13F
:10E2B8001003DBB20D2BF3D8012101FA03F342F668
:10E2C80043010B4213D113F4E06F03D113F0A00FF5
:10E2D800AFD1E5E7454B1B78162B72D0002A0CBF4F
:10E2E800012002207047414B1B78162B6BD0022A65
:10E2F8000CBF0120022070473C4B1B78162B64D0C2
:10E30800042A0CBF012002207047384B1B78162BBB
:10E318000FD0802926D01AD806290FD8042903D867
:10E328000139CBB2022B52D8032A0CBF012002209C
:10E338007047002A0CBF012002207047732904D1BE
:10E34800062A0CBF0120022070470220704781294D
:10E358000DD0F02904D1012A0CBF104602207047C5
:10E3680002207047042A0CBF012002207047022AAD
:10E378000CBF0120022070471C4B1B78162B28D09D
:10E38800042913D8DFE801F0030803030D00032A6A
:10E398000CBF012002207047032A8CBF08460220C8
:10E3A8007047032A0CBF0120022070470E4A1378D9
:10E3B80043F080031370002070470120704701204C
:10E3C80070470120704701207047012070470220E4
:10E3D80070470120704700BF1A696000E100010022
:10E3E8002D800F00D20610002C0400202C170020CE
:10E3F800F8B505460F461446131D1E4605F024F9C8
:10E4080000283ED1334A137843F080031370324B0F
:10E418001B78182B05D8314A22FA03F313F0010FA1
:10E428003BD12F4B01221A702B4B1B78162B43D054
:10E43800284B1A782A4B5A70294B9D70DC704CB1C6
:10E4480039463B46274A214413F8010B02F8010FCD
:10E458008B42F9D1224D31462846FFF79DFE2544CF
:10E4680028710134E4B204341F4B1C801F4B002276
:10E478001A801F4B1A70174A137823F02003137061
:10E48800F8BD154B93F82E3013F0010FBFD1114A88
:10E49800137823F080031370B9E70E4A137823F03A
:10E4A8000803137005F096F80128BAD1094A1378C1
:10E4B80043F008031370B4E70E4B1B78084A5370F7
:10E4C80013F0010FB8D00B4A137823F0010313702F
:10E4D800B2E700BF1C0300202C170020800418019D
:10E4E8002003002023030020240400202604002009
:10E4F8001D03002014030020134B1B6813F4007F36
:10E508000AD1114B1B6813F0080F0BD10E4B1B6877
:10E5180013F0040F0FD170470B4A136823F40073EC
:10E528001360EEE7084A136823F008031360074BEB
:10E5380000221A80EAE7044A136823F004031360F0
:10E54800034B00221A80E6E75C1500201603002022
:10E558001803002000B500EB8002374B03EB420C98
:10E56800002300E013463CF8022F3AB38A4206D053
:10E578005A1C042BF6D101339BB2042B25D82F4B00
:10E588009B6813F0040F3BD12D4B1B889BB21BB12A
:10E5980040F2414399420ED1284A136823F400639C
:10E5A8001360284B1B78162B0CBF274A274A137871
:10E5B80043F040031370022828D000BD00EB80020E
:10E5C8001344234A22F81310D9E7214A00EB800CA0
:10E5D80002EB4C03B3F802E022F81CE0B3F804C0E5
:10E5E800A3F802C0B3F806C0A3F804C0B3F808C083
:10E5F800A3F806C000EB800302EB43021181BEE7DB
:10E60800144A137843F002031370D4E70D4B002229
:10E618005A82DA829A829A8393F8212022F00102A0
:10E6280083F82120054B1A6822F480321A601A6890
:10E6380022F400321A60C0E7F20200205C150020C4
:10E64800EC0200202C170020140300201C030020DB
:10E65800F4020020D8020020224B9B8AB3B1224A40
:10E6680002211170214A127802F10A001D4931F87D
:10E678001010B1B1032A27D91C4A002111701C4A75
:10E6880013800EE00132194B1A700AE0174B002272
:10E698001A70144B5B893BB1134A01211170144A5B
:10E6A8001380134B188870470E4B1B882BB10E4AEA
:10E6B800002111700E4A1380F3E70B4B03221A70E6
:10E6C8000B4B00221A80ECE7094B198002F10B036F
:10E6D800044931F81330002BD4D1044B00221A70AE
:10E6E800DFE700BFF4020020F2020020E40200206D
:10E6F800F002002008B59E4B9B6813F0040F78D1F8
:10E708009B4B1B6813F0020F40F0B780994B002217
:10E718001A70974B1B6813F4007F40F0B480944B39
:10E728001A6822F008021A601A6822F004021A60B5
:10E738000023914A13804FF00001904A1170904ACB
:10E7480013808B4B1B6813F0040F40F0A7808C4B91
:10E7580000221A80864B1B6813F0080F40F0A48033
:10E76800854B00221A80854B1A70814B9B6813F0E9
:10E77800040F40F0CE80834B1B7813F0400F40F01D
:10E788007881814B1B8801339BB27F4A1380C72B4A
:10E7980040F27281FFF760FF0246002800F05881BE
:10E7A8007A4B1B889BB2834200F01281784B1B780E
:10E7B800022B00F0B980754B1B889BB2002B40F0F0
:10E7C800F980744B00221A80694B1A6822F400629F
:10E7D8001A609B6813F0040F40F0C3806E4B1B78DF
:10E7E800162B0CBF6D4A674A137843F04003137029
:10E7F80002E101216A4809F011F801280BD0694BA0
:10E8080000221A705A4B9B6813F0080F22D1664BEE
:10E8180000221A7074E7644B00221A70544B9B68EC
:10E8280013F0080F12D15F4A13780133DBB213706B
:10E83800322B7FF665AF4E4A138943F008031381E4
:10E848005A4A137843F00103137059E7554B0022D5
:10E858001A7055E7544A13780133DBB21370322B20
:10E868007FF64EAF424A138923F0080313814F4ABB
:10E87800137823F00103137042E73E4A13780133FB
:10E88800DBB2137045E704F0DFFE00283FF447AF22
:10E8980004F0B4FE00287FF454AF40E7384A1388E8
:10E8A80001339BB2138055E704F0A8FE01280AD073
:10E8B8002F4A136823F0080313602F4B00221A8095
:10E8C8002E4B1A7051E72C4A138801339BB21380E0
:10E8D80013889BB241F6583293427FF646AF264BD7
:10E8E80000221A80324A537843F080035370234A37
:10E8F80013780133DBB213701378072B7FF635AF2B
:10E90800134600221A701A4A136843F4806313608E
:10E918002BE7264B1B7813F0020F40F0AA801A4B06
:10E928001B8801339BB230E71A4B00221A80104B28
:10E938001A6822F400621A609B6813F0040F0AD167
:10E94800154B1B78162B0CBF144A0E4A137843F04C
:10E958004003137050E0154A137843F00203137014
:10E968004AE0124A137843F00203137044E000BFF0
:10E978005C1500201D03002016030020150300204D
:10E98800180300201C030020EA020020EC020020EB
:10E99800F2020020E80200202C17002014030020B7
:10E9A800000801408801002087010020D8020020CB
:10E9B8002C040020314B1B6813F4006F1CD12F4A24
:10E9C800136843F4006313602D4B0F221A8013E081
:10E9D8002A4B1B6813F4006F0ED1284A136843F4BE
:10E9E80000631360274B1B784033DBB2052B244BA5
:10E9F80094BF0F2232221A80204B1B6813F4006F39
:10EA080033D0214A138801339BB213801C4A1288E1
:10EA18009A422AD81C4B00221A80184B9B6813F084
:10EA2800040F0FD1174B1B78162B0CBF174A184A27
:10EA3800137843F040031370104A136823F40063FB
:10EA4800136012E0134A137843F002031370F3E7DC
:10EA58000C4B1B78162B0CBF0C4A0D4A137823F06D
:10EA680040031370084B00221A800B4B00221A80B7
:10EA780002E0094B00221A8008BD00BF5C15002087
:10EA8800E60200202C170020E802002014030020D2
:10EA98001C030020D8020020EA020020184B1B7833
:10EAA800022B17D8012B04D9164A1288B2F5946F95
:10EAB80010D1154903EB830001EB4002B2F802C004
:10EAC80021F810C090885080D08890801089D0801C
:10EAD800002313810D4B9B6813F0040F0AD10C4BD4
:10EAE8001B78162B0CBF0B4A0B4A137823F04003F4
:10EAF80013707047094A137823F0020313707047A4
:10EB0800F2020020F0020020F40200205C15002030
:10EB18002C170020140300201C030020D80200201A
:10EB2800084A02F114031C3233F8021B814204BF65
:10EB3800198823F8021C9342F6D1024B00229A83CB
:10EB4800704700BFF402002008B5574B93F9013015
:10EB5800002B3CDB544B5B7813F0200F3DD1524B1C
:10EB68005B7813F0100F3ED14F4B5B7813F0400FDA
:10EB78003FD14D4B5B7813F0080F40D14A4B5B787F
:10EB880013F0020F41D1484B5B7813F0040F42D1C8
:10EB9800454B1B7813F0080F43D1434B1B7813F0F8
:10EBA800200F49D1404B1B7813F0100F4FD13E4B2B
:10EBB8001B7813F0010F55D13B4B1B7813F0020F54
:10EBC8005BD1394B1B7813F0040F61D108BD4FF4AA
:10EBD80094610220FFF7BEFCBCE740F2B22102209C
:10EBE800FFF7B8FCBBE740F2AB210220FFF7B2FC0D
:10EBF800BAE74FF42D710220FFF7ACFCB9E74FF4E8
:10EC0800DA710220FFF7A6FCB8E74FF4D6710220AC
:10EC1800FFF7A0FCB7E740F2AF110220FFF79AFC1C
:10EC2800B6E74FF4A5710120FFF794FC1E4A13784C
:10EC380023F008031370B0E74FF412710120FFF7B7
:10EC480089FC194A137823F020031370AAE740F2CD
:10EC580047210120FFF77EFC134A137823F01003A5
:10EC68001370A4E74FF4A0710120FFF773FC0E4A5C
:10EC7800137823F0010313709EE74FF4A27101206B
:10EC8800FFF768FC084A137823F00203137098E72B
:10EC98004FF4A3710120FFF75DFC034A137823F0BA
:10ECA8000403137092E700BF2C040020154B03F1F6
:10ECB8000A01002223F8022B1A815A828B42F9D1C9
:10ECC800114A537823F080035370104B1B8813F0BC
:10ECD800400F07D10C4A537823F0200353700128C2
:10ECE80004D070470A4B70221A70F8E7064A537826
:10ECF80023F008035370137803F0D70323F01003AD
:10ED08001370EEE7F40200202C040020101A0020F3
:10ED180089010020024B034A1360034A13607047BD
:10ED2800500D0020480D00204C0D0020044BC31A44
:10ED380040F608029342D4BF01300148704700BF33
:10ED4800500D0020044B1868044B1B68984214BFF0
:10ED580000200120704700BF4C0D0020480D002006
:10ED6800074B1868074B1B68984202D81B1A98B2C1
:10ED78007047C01AC0F500600A3080B2704700BF03
:10ED88004C0D0020480D002038B50546074B1C687F
:10ED98002046FFF7CBFF064B1B68984205D025702D
:10EDA800024C2068FFF7C2FF206038BD480D0020E4
:10EDB8004C0D002010B540F22551424808F016FECF
:10EDC80030B940F226613F4808F010FE80B910BD06
:10EDD8003C4808F007FE044640F22551394808F03F
:10EDE80026FEE0B2FFF7D0FF374B00221A80E8E793
:10EDF80040F22661334808F01AFE344B1B6813F0C2
:10EE0800010F14D10023324A1380324A13802F4B4A
:10EE18001B6813F0200FDAD1002202212E4808F0D7
:10EE280003FD2A4A136843F020031360CFE7284BF9
:10EE38001B88284A12889A420FD9244A926812F0ED
:10EE4800040F14BF254A264AD15C1E4808F0C6FDA7
:10EE58001F4A138801331380B9E700231C4A138023
:10EE68001C4A1380194B1A6822F001021A601B68A9
:10EE780013F4007F1AD100220221174808F0D4FCAD
:10EE8800124B1A6842F020021A601B6813F4807F44
:10EE98009DD0012004F0C0FB0C4B1A6842F08002A0
:10EEA8001A601A6822F480721A6090E7074B1B6890
:10EEB80013F0800FDFD1054A136843F00403136091
:10EEC800D9E700BF00440040180300205C1500206B
:10EED800260400202404002000080140CC01002062
:10EEE8002003002010B5084B1868084B1B688342A4
:10EEF80007D003781C46FFF719FF034B186020461C
:10EF080010BD00231C46FAE74C0D0020480D0020D8
:10EF1800024B034A1360034A136070473C05002004
:10EF2800340500203805002008B5FFF7F3FEFFF789
:10EF3800EFFF00234FF0000228490B8028490A7090
:10EF480028490B8028490A7028490B8028490B80DA
:10EF580028490A70284A1360284B03F10A01002245
:10EF680023F8022B1A815A828B42F9D10022244BB2
:10EF78001A70244B1A80244B1A70244B1A80244B85
:10EF88001A80244B1A803220234B18804FF000013E
:10EF9800224B1970184B196841F040011960196823
:10EFA80041F020011960198921F00401198119899A
:10EFB80021F0080119811A4B18810221194808F01B
:10EFC80033FC194A931E3A32002123F8021F934258
:10EFD800FBD1164B00221A7008BD00BF2604002082
:10EFE8001D030020240400201C0300201803002017
:10EFF80016030020150300205C150020F4020020F1
:10F00800F2020020F0020020EE020020EC020020B4
:10F01800EA020020E8020020E6020020E4020020C4
:10F02800E0160020000801408C0100208A01002021
:10F0380070B586B026238DF8043000248DF805407D
:10F048008DF806408DF8074001AE304608F0B2FD55
:10F05800174D284608F0EEFBFFF766FF4FF41653EE
:10F068000293ADF80C40ADF80E40ADF81040ADF885
:10F0780014400C23ADF8123002A9284608F02CFCE5
:10F08800012240F22551284608F08EFC012240F268
:10F098002661284608F088FC0121284608F076FCFD
:10F0A80001238DF80730304608F084FD06B070BDA6
:10F0B8000044004070B586B026238DF80430002443
:10F0C8008DF805408DF806408DF8074001AE3046B2
:10F0D80008F070FD1A4D284608F0ACFBFFF724FF36
:10F0E800184A138943F0040313814FF4E133029360
:10F0F800ADF80C40ADF80E40ADF81040ADF8144036
:10F108000C23ADF8123002A9284608F0E5FB0122CD
:10F1180040F22551284608F047FC012240F22661BA
:10F12800284608F041FC0121284608F02FFC01235D
:10F138008DF80730304608F03DFD06B070BD00BFC1
:10F14800004400405C150020802849D8002844D09D
:10F1580001387F2842D8DFE800F054545E54545EEA
:10F168005954635E545E5E6F685963414141414141
:10F178004141414141414141415454414141414151
:10F188004141414141414141414141414141414167
:10F198004141414141414141414141414141414157
:10F1A8004141414141414141414141414141414147
:10F1B8004141414141414141414141414141414137
:10F1C8004141414141414141414141414141414127
:10F1D80041414141414141414159704700207047F7
:10F1E8007F30C0B2072829D80123834013F0AA0F23
:10F1F80007D113F0540F1DD13C290CBF0120022068
:10F20800704700290CBF01200220704701290CBF5C
:10F2180008460220704702290CBF012002207047CF
:10F2280004290CBF0120022070470A290CBF0120C5
:10F238000220704701207047012070470020704766
:10F2480070B506468C461446911D1D4A4AF655234C
:10F2580013801C481C4DB5F806E0BEF14F0F8CBF5B
:10F268004FF0000E4FF0010E03786EF3C3034FF01A
:10F27800010E6EF38713037093702B7903EB0E0066
:10F288002871D3701671547144B163460532A44491
:10F2980013F8010B02F8010F6345F9D1084D284610
:10F2A800FEF77AFF2544A8710134E4B20634074B0F
:10F2B8001C80074B00221A80064B1A7070BD00BFD5
:10F2C800CC010020D8020020E016002024040020F1
:10F2D800260400201D0300202DE9F0410446A34D1B
:10F2E8002B780370FFF7B8F9000A6070FFF7B4F9DC
:10F2F800A0702B78012B00F08D80032B00F0B880D4
:10F30800002B40F0B980AA89E2702A8A2271EA8823
:10F31800120A6271EB88A371954D2B78E371002274
:10F328000121104607F0A0FA000A207200220121EC
:10F33800104607F099FA607200220221104607F081
:10F3480093FA000AA07200220221104607F08CFAF4
:10F35800E0726E88874B1B88B34202D9854B002226
:10F368001A80844B1F88FBB29846F61AF6B22673A9
:10F378001FFA83FC63466644B445A8BF0D223EDAF3
:10F388000CF1010120460D22794DA7EB0C0705EB86
:10F39800430EBEF804C04FEA1C2C80F80DC0BEF81E
:10F3A80004C080F80EC002F1030C5FFA8CFC03F570
:10F3B800807305EB4303B3F802E04FEA1E2E80F892
:10F3C8000FE00432D2B25B8804F80C30CB191FFA74
:10F3D80083FE0B46B1420FDA01F1010C1FFA8CFCD7
:10F3E8000430FD2A01D06146D1E7624BA3F800E062
:10F3F8004346C91A217202E05E4BA3F800E05B495C
:10F40800CB8B1B0AA354901CC0B20132D2B2CB8B57
:10F41800A35467E0554A138A1B0AE370138A2371C1
:10F42800554B1B7813F008021CD050490A8B120A5E
:10F4380062710A7EA27113F0100316D04B4A538BE7
:10F448001B0AE371937E2372484BDA88110A6172B2
:10F45800A2729A89E272DA8B120A2273DB8B6373C7
:10F468000E203FE000216171E4E70022E271EAE743
:10F47800424B1B78042B37D03F4B1B7813F001020B
:10F488006ED03A49CA89120AE2708A7B22713749DA
:10F498000A8A120A62710A8AA27113F0020362D000
:10F4A8004B8A1B0AE3718B7C2372304BDA88110A72
:10F4B8006172A2729A8B120AE2729A8B2273DA8BA9
:10F4C800120A6273DA8BA2731A8C120AE2731A8C0C
:10F4D80022745A8C120A62745A8CA27493F82430DB
:10F4E800E3741420BDE8F081204A138A1B0AE370F4
:10F4F800138A2371214BB3F8AA300BB192F8283044
:10F5080063711A4D2B8C1B0AA3712B8CE371AB8B87
:10F518001B0A2372AB8B6372184BB3F8B420120A20
:10F52800A272B3F8B420E27293F84B22227393F8D4
:10F538004A22627393F84922A27393F84822E2732D
:10F5480093F84B0205F022FAC0F307432374C0F383
:10F5580007236374A07495F82430E3741420C1E77A
:10F568000021E17092E70022E2719DE7E016002099
:10F57800281F002082000020DC1600202C17002005
:10F5880070B582B005460023DC4A1370ADF804302C
:10F59800ADF80630DA4B1E6874792146FFF7D4FDC2
:10F5A800012809D0D54B1D7090250122D349284642
:10F5B800FFF746FE02B070BD024696F806C0012C61
:10F5C80040F258838DF805C0F3798DF80430032C88
:10F5D80005D9337A8DF80730737A8DF806306B1EAB
:10F5E800872B00F2138101A151F823F019F80008C4
:10F5F80075F800081DF9000881F8000815F80008DA
:10F6080039F90008D9F800089BF800085DF90008E6
:10F6180089F9000897F90008A9F90008ADF9000868
:10F62800F7F9000831FC000801FC000871FA00082D
:10F6380015F8000815F8000815F8000815F800086E
:10F6480015F8000815F8000815F8000815F800085E
:10F6580015F8000815F8000815F8000815F800084E
:10F6680015F8000815F80008B9F80008CFF80008E0
:10F6780015F8000815F8000815F8000815F800082E
:10F6880015F8000815F8000815F8000815F800081E
:10F6980015F8000815F8000815F8000815F800080E
:10F6A80015F8000815F8000815F8000815F80008FE
:10F6B80015F8000815F8000815F8000815F80008EE
:10F6C80015F8000815F8000815F8000815F80008DE
:10F6D80015F8000815F8000815F8000815F80008CE
:10F6E80015F8000815F8000815F8000815F80008BE
:10F6F80015F8000815F8000815F8000815F80008AE
:10F7080015F8000815F8000815F8000815F800089D
:10F7180015F8000815F8000815F8000815F800088D
:10F7280015F8000815F8000815F8000815F800087D
:10F7380015F8000815F8000815F8000815F800086D
:10F7480015F8000815F8000815F8000815F800085D
:10F7580015F8000815F8000815F8000815F800084D
:10F7680015F8000815F8000815F8000815F800083D
:10F7780015F8000815F8000815F8000815F800082D
:10F7880015F8000815F8000815F8000815F800081D
:10F7980015F8000815F8000815F8000815F800080D
:10F7A80015F8000815F8000815F8000815F80008FD
:10F7B80015F8000815F8000815F8000815F80008ED
:10F7C80015F8000815F8000815F8000815F80008DD
:10F7D80015F8000815F8000815F8000815F80008CD
:10F7E80015F8000815F80008B5F5000815F8000820
:10F7F800BBF900089FFA0008E3FA00082BFB000891
:10F808002FFB000845FB000889FB00080022CDE615
:10F818003C4B1978394B19703B48007858700020D8
:10F8280098700120D870022905D0FD2914D051B153
:10F8380015460422BAE6314B012199700221D9708C
:10F8480015460422B2E62D4B02211970012098704A
:10F85800D97015460422A9E6284B03211970022104
:10F8680099700521D970154604229FE62348FFF7B1
:10F8780033FD0246022599E6244A537803F0E9034A
:10F8880023F0400353700120FFF710FA04250022EB
:10F898008CE61D4B998ADA8A184BC1F30720187039
:10F8A8005970C2F307219970DA70082504227DE6A1
:10F8B800FEF7D2FE114C030A2370FEF7CDFE6070EE
:10F8C8002025022272E6FFF7E9F8212500226DE6DD
:10F8D8000F490B8801330B80BCF1FF0F08D0BCF136
:10F8E800000F40F0BF81054B0121197007255DE627
:10F8F800054B5978014B1970072557E688000020F9
:10F90800D40200202C170020E01600202C04002030
:10F9180084000020BDF80430312B03D9AA4A138192
:10F92800002243E6A84B32221A81032500223DE635
:10F93800BDF80430A44A53814EF6602202FB03F35B
:10F94800A24A1360A24A138843F4806313800625F1
:10F9580000222BE69C4CBDF80430A382BDF806308B
:10F96800E38204F1140202213420FEF793FA04F131
:10F97800160202213620FEF78DFA0925002215E627
:10F98800944BBDF804201A800A2500220EE6914BFC
:10F998001988914BC1F30720187059700B2505E69B
:10F9A8000C2503E6884BBDF80420DA840D250022D7
:10F9B800FCE58A49884A00230DE0012811D0022875
:10F9C8000CBF11F8020C11F8040C1070013301314E
:10F9D80001323C2B08D013F00300EED18878107068
:10F9E800F4E708781070F1E782253C22DEE57A4BCF
:10F9F80083F800C000225A709A70BCF1020F0ED032
:10FA0800BCF1030F05D0BCF1010F1AD00E2503225B
:10FA1800CCE5714BFA229A7062460E25C6E5704B0A
:10FA28001C786D4B9C7044B16E4B6F4AE01813F80C
:10FA3800011B02F8011F8342F9D1E21CD2B20E2544
:10FA4800B4E5317A664B197041B10836654B3144DB
:10FA580016F8012F03F8012B8E42F9D1012003F08B
:10FA68001FFE0E250322A1E5727A604B83F8482217
:10FA7800327A83F84922F27983F84A22B27983F8F4
:10FA88004B22D3F8480204F095FF4F4B83F824002B
:10FA9800112500228AE5554B83F8B6C04FEA8C0041
:10FAA800BCF1000F00F0E080C82828BFC820002261
:10FAB800F17983F8B710317A83F8B810717A83F83E
:10FAC800B910B17A83F8BA1004320436043391B20B
:10FAD8008842EDD88325002268E5444B93F8B63078
:10FAE800B3B91523414A82F8B63054243A4A137000
:10FAF8003F4A394B601E80B2591C084412F8011F56
:10FB080003F8011F8342F9D1621CD2B284254DE566
:10FB1800364B93F8B630304A13709C00002BE7D16F
:10FB2800F2E7852542E52C4A531E0E32002103F8E0
:10FB3800011F9342FBD186250F2237E52B4B83F813
:10FB48007FC14FEA8C00BCF1000F00F09080C828FC
:10FB580028BFC8200022F17983F88011317A83F810
:10FB68008111717A83F88211B17A83F88311043292
:10FB78000436043391B28842EDD88725002215E572
:10FB88001A4B93F87F31B3B90723184A82F87F31AB
:10FB98001C24114A1370174A0F4B601E80B2591C5F
:10FBA800084412F8011F03F8011F8342F9D1621CAF
:10FBB800D2B28825FAE40D4B93F87F31064A1370C8
:10FBC8009C00002BE7D1F2E7E0160020D0160020B9
:10FBD800101A0020DC160020880000203598010843
:10FBE800CF160020D41500208A0000202C170020F2
:10FBF800E2170020AB180020BCF1190F28BF4FF006
:10FC0800190CA84B83F824C0A74BD3F84822A7495E
:10FC180051F82C1061F31702C3F84822042283F824
:10FC28004B2210250022C1E4A14B83F800C0BCF18F
:10FC3800010F0DD09B4800F128039D4A303013F87E
:10FC4800011F02F8011F8342F9D10F250A22ADE4F2
:10FC5800B31D984A0E3613F8011F02F8011FB3426C
:10FC6800F9D1E7E70725A1E4832562469EE48725C5
:10FC780062469BE46B1E872B3FF6C8AD01A151F885
:10FC880023F000BF19F8000875F800082DF90008DE
:10FC980081F8000815F8000839F90008D9F80008B3
:10FCA8009BF800085DF9000889F9000897F9000831
:10FCB800A9F90008ADF90008F7F9000831FC0008B7
:10FCC80001FC000871FA000815F8000815F800088A
:10FCD80015F8000815F8000815F8000815F80008C8
:10FCE80015F8000815F8000815F8000815F80008B8
:10FCF80015F8000815F8000815F8000815F80008A8
:10FD0800B9F80008CFF8000815F8000815F8000839
:10FD180015F8000815F8000815F8000815F8000887
:10FD280015F8000815F8000815F8000815F8000877
:10FD380015F8000815F8000815F8000815F8000867
:10FD480015F8000815F8000815F8000815F8000857
:10FD580015F8000815F8000815F8000815F8000847
:10FD680015F8000815F8000815F8000815F8000837
:10FD780015F8000815F8000815F8000815F8000827
:10FD880015F8000815F8000815F8000815F8000817
:10FD980015F8000815F8000815F8000815F8000807
:10FDA80015F8000815F8000815F8000815F80008F7
:10FDB80015F8000815F8000815F8000815F80008E7
:10FDC80015F8000815F8000815F8000815F80008D7
:10FDD80015F8000815F8000815F8000815F80008C7
:10FDE80015F8000815F8000815F8000815F80008B7
:10FDF80015F8000815F8000815F8000815F80008A7
:10FE080015F8000815F8000815F8000815F8000896
:10FE180015F8000815F8000815F8000815F8000886
:10FE280015F8000815F8000815F8000815F8000876
:10FE380015F8000815F8000815F8000815F8000866
:10FE480015F8000815F8000815F8000815F8000856
:10FE580015F8000815F8000815F8000815F8000846
:10FE680015F8000815F8000815F8000815F8000836
:10FE780015F8000815F8000815F8000815F8000826
:10FE8800B5F5000815F80008BBF900089FFA000846
:10FE9800E3FA00082BFB00082FFB000845FB0008CD
:10FEA80089FB0008E01600202C170020CC970108D9
:10FEB8008800002008170020024A138801331380A5
:10FEC800704700BFCA010020044B1B88834238BF1B
:10FED80003F1FF33181A80B2704700BFCA0100202F
:10FEE800F0B5C1B0794B9B6813F0080F7FD1774B01
:10FEF8001B6813F0020F40F0C480FEF723FF0028B0
:10FF080040F0C380FEF72CFF062840F2BE80704BFD
:10FF18001B681A461E466F4B1A6012884AF655230C
:10FF28009A4240F09780FEF71BFF72791746931D9F
:10FF3800984240F3AA80B01D62B1711D0C46531E51
:10FF48009BB203441D46037804F8013FFEF7EEFE1A
:10FF5800AC42F8D10478B91D3046FEF71DF9A0422D
:10FF680040F08180594B1A6822F004021A601A681E
:10FF780022F008021A60002257490A7057490A807D
:10FF880057490A801A6842F400721A601A6822F403
:10FF980080621A60534B93F90130002B5DDB4B4BA9
:10FFA8001B6813F0400F04D1484A136843F0080354
:10FFB80013603079FFF7E4FA3B460D331D46002302
:10FFC8001C46FEF78FFF234601331C469D42F8D19D
:10FFD8003E4B1A6842F002021A601A68C2F3001215
:10FFE80082F00102196862F3041119604DE03E4B7A
:08FFF8001888FFF769FF3D4B7B
:020000040801F1
:100000001B89834245D83C4B1A88394B1A80684675
:10001000FFF766F9024669461220FFF715F92D4AE7
:10002000136823F002031360136843F001031446BE
:10003000136001220221314807F0FAFB236823F004
:10004000200323602E4B00221A702E4B01221A80AF
:100050002D4B19782D4807F0C5FC1AE0FEF746FF36
:1000600017E0224A537823F0800353709BE7FEF792
:100070003DFFFEF73BFF174B1A6822F002021A60A1
:100080001A6822F001021A6003E01D4B1B78052B51
:1000900001D841B0F0BD0F4A136823F0020313608A
:1000A000136843F001031446136001220221134830
:1000B00007F0BEFB236823F020032360104B0022CF
:1000C0001A70104B01221A800F4B19780F4807F055
:1000D00089FCDEE75C1500204C0D0020D4020020D6
:1000E0001503002018030020160300202C04002014
:1000F000C8010020E0160020CA01002000080140CD
:100100001D03002026040020CC01002000440040F4
:1001100001EB002189B2144B93F800C0BCF1000F31
:100120001AD0124A00231088884212D002320133BA
:10013000DBB26345F7D10D4B23F81C100CF1010C19
:100140005FFA8CFCBCF11D0F0AD9074B1D221A70F7
:1001500070479C45EFD97047044B19804FF0010C54
:10016000014B83F800C070478A0100208C010020F9
:10017000F0B5C1B0044600228DF800202C4B1E794A
:100180007D2805D020D98A2802D0F52841F0BF84E7
:10019000274BDA7831462046FEF722F8012850D066
:1001A0000025244B93F90030002BC1F28A84214BA7
:1001B0005B7813F0010F41F099842A466946204686
:1001C000FEF71AF941B0F0BD5028E1D07A2841F08D
:1001D0009E84174BDA783146FEF702F8012841F089
:1001E000A384134A15794FF0000365F30F23517967
:1001F00061F30703104A128812F0400F00F0DA840E
:100200000E4A1278702A00F0C681F72A2ED1F72CF8
:1002100040F0C181284603F023FA074B1B8813F0F6
:10022000400F40F037860025044B1D70B9E700BF32
:10023000300400202C040020101A00208901002026
:100240000026E94B1B6813F0400F40F09381E74A0A
:1002500015794FF0000365F30F23517961F307031C
:10026000E34A128812F0400F40F08F81A4F140025F
:10027000BD2A00F2998101A050F822F09B170108D5
:10028000B3170108BF170108A9050108A90501084E
:10029000031A01081D1A0108D7170108D31801080D
:1002A000E9190108CB110108B5110108A9050108D8
:1002B000A9050108A9050108A90501085D090108AA
:1002C0007F130108FF1401085515010813160108D2
:1002D000431A01085D160108751601081717010871
:1002E000B9160108A9050108A9050108A905010811
:1002F000A9050108A9050108A9050108A905010822
:10030000B50F0108E30F01086F0701082710010866
:10031000150D0108110C0108310C0108C90701086D
:10032000D107010837080108D90701083F0801086B
:10033000270C01083B0C0108A9050108AD050108BF
:10034000A9050108C505010815060108450C0108A5
:10035000530901080D060108A9050108A9050108AE
:10036000A9050108B50B010859110108A9050108E3
:100370002D120108A9050108A9050108630C01084F
:100380006D0C01087F100108DD100108ED10010857
:100390001F0D01084B090108290D0108330D010843
:1003A000A9050108410D0108330E0108670E010877
:1003B0006311010887110108A9050108F70E01085A
:1003C000030F0108A9050108A9050108A9050108ED
:1003D000130F0108230F0108A9050108A905010849
:1003E000A9050108A9050108A9050108A905010831
:1003F000A9050108A9050108A9050108A905010821
:10040000A9050108A9050108A9050108A905010810
:10041000A9050108A9050108A9050108A905010800
:10042000A9050108A9050108A9050108A9050108F0
:10043000A9050108A9050108A9050108A9050108E0
:10044000A9050108A9050108A9050108A9050108D0
:10045000A9050108A9050108A9050108A9050108C0
:10046000A9050108A9050108A9050108A9050108B0
:10047000A9050108A9050108A9050108A9050108A0
:10048000A9050108A9050108A9050108A905010890
:10049000A9050108A9050108A9050108A905010880
:1004A000A9050108A9050108A9050108A905010870
:1004B000A9050108A9050108A9050108A905010860
:1004C000A9050108A9050108A9050108A905010850
:1004D000A9050108A9050108A9050108A905010840
:1004E000A9050108A9050108A9050108A905010830
:1004F000A9050108A9050108A9050108A905010820
:10050000A9050108A9050108A9050108A90501080F
:10051000A9050108A9050108A9050108A9050108FF
:10052000A9050108A9050108A9050108A9050108EF
:10053000A9050108A9050108A9050108730E01080C
:100540008B0E0108A9050108A9050108A9050108E4
:10055000830C0108D70C010815020108CB0E010815
:10056000E10E0108EB0C0108010D01080B0D01085B
:10057000590C010803F046F801287FF468AE1A4AC6
:10058000136823F04003136061E61A4A1278702A58
:100590007FF43BAE3BE61848427842F020024270BE
:1005A000144A0020107061E60025FAE5124A5378DB
:1005B00003F0E90323F0400353700020FEF77AFBB9
:1005C0000025EEE5FEF74CF8C0F307228DF8002079
:1005D0008DF80100094B1A78094B1A70094B1A88DB
:1005E000094B1A800225DCE55C1500203004002050
:1005F000101A0020890100202C040020F2020020A3
:10060000EE020020F0020020EC020020FEF74AFA81
:100610000025C6E57E4B1B788DF80030212B38D99C
:10062000A02B40F29F80A13B5E2B00F29B80DFE875
:1006300003F0949494999999999999999999999978
:10064000999999999999999999999999999999991A
:1006500099999962679976996C71949999999999F0
:1006600099999999999999999999999999999999FA
:1006700099999999999999999999999999999999EA
:100680009994949499999999999999999999995A28
:100690004D00062B66D9073B1A2B63D8DFE803F021
:1006A000446262494E626262626262625362621EC8
:1006B000586262620E620E5D5D5D5D00FF228DF824
:1006C000002000228DF8012002256AE50B228DF81A
:1006D000002004228DF80120022562E516238DF802
:1006E000013002255DE504228DF8002001228DF8FD
:1006F0000120022555E50A238DF80130022550E539
:1007000064238DF8013002254BE56C238DF8013010
:10071000022546E564238DF80130022541E50323D7
:100720008DF8013002253CE567238DF80130022564
:1007300037E568238DF80130022532E50D238DF869
:10074000013002252DE505238DF80130022528E52D
:1007500003238DF80130022523E501238DF80130B4
:1007600002251EE504238DF80130022519E52849EC
:10077000B1F84420134609780B290BD01D291FD04E
:10078000072911D0C3F307218DF800108DF801302F
:10079000022506E502EB4202D2001E4981FB02124D
:1007A00092101B49CA84EDE7194989780129E9D1DA
:1007B000120105320A2192FBF1F21549CA84E1E7E0
:1007C000134BB3F8AA30DDE7114AD3800025E8E4E3
:1007D0000F4B1D710025E4E49AB20D498B83097813
:1007E0000B291BD00A4B1B6803F0FF130A498B42ED
:1007F00018BF00257FF4D5AC0549A1F844201301AA
:1008000005330A2293FBF2F3CB840025C9E400BF31
:100810002C1700206766666607000100AE49A1F844
:10082000443002EB4203DB00AC4A82FB03239B1003
:10083000CB840025B5E4A84A53810025B1E4A64A3B
:100840009570A7490B8843F480430B8013781B2BCA
:100850001FD80A2B11D8082B4DD00A2B55D0072BA7
:1008600009D1012D41F200819E4A537843F01003D3
:100870005370002595E4002593E401229A409A499B
:100880000A424ED112F08C7F2BD11B2B53D0002566
:1008900087E4212B0CD81D2B98BF00257FF681AC57
:1008A0001E3B032B01F2D080DFE803F03B2F3B1B04
:1008B000C92B10D8BF2B04D85F33DBB2022B01F257
:1008C000C680042D01F0DC80864A537843F0100383
:1008D0005370002565E41033DBB2022BF1D90025FB
:1008E0005FE4002D3FF45DAC7E4A537843F0100383
:1008F0005370002555E4032D01F0B980794A5378EF
:1009000043F01003537000254BE4AB1EDBB2012B08
:1009100041F2B080734A537843F0100353700025BE
:100920003FE4052D01F0A9806E4A537843F010038F
:100930005370002535E4072D01F0A580694A5378EE
:1009400043F01003537000252BE4634A1381002504
:1009500027E44E228DF80020012522E45E4A127819
:10096000162A11D08DF80060062E20D8002E01F036
:100970008D80731E052B17D8DFE813F04F008B080E
:100980005800A20063006E0001228DF8012016219C
:100990008DF8021000208DF803008DF804108DF8FA
:1009A00005200625FFF7FDBB0025FFF7FABB812ECA
:1009B00000F0EC801ED8732E00F09C80802E16D1A3
:1009C0004A4A907960F30F23D27962F307034A1EF3
:1009D000D2B2032A00F2D4803F4A02EB4102A2F8CD
:1009E000503200228DF801200225FFF7DABB0025E6
:1009F000FFF7D7BBF02E0DD11B2A00F0B1801D2AC6
:100A000000F0AE80374A137843F08003137000255E
:100A1000FFF7C7BB0025FFF7C4BB08228DF80120F4
:100A200000228DF802200325FFF7BBBB8DF8015093
:100A30008DF802108DF803508DF804100525FFF78E
:100A4000B0BB8DF801508DF802108DF803508DF871
:100A500004103546FFF7A5BB00218DF801108DF875
:100A600002108DF803108DF804108DF805108DF824
:100A700006108DF807108DF80810A32A04D8A02AB4
:100A800008D80925FFF78DBB02F11003DBB2012B5B
:100A900001F20280164B01221A8040F29A225A80FB
:100AA00000228DF801204FF001028DF80220022271
:100AB0008DF803209A228DF804200925FFF771BBD9
:100AC0008DF801508DF802108DF803508DF8041048
:100AD0000525FFF766BB00BF2C170020676666661A
:100AE000101A00202C04002000088002300400208E
:100AF000DC020020002061F30700BC4B9A7962F30E
:100B00000F20DA7962F317401A7A62F31F6000212E
:100B10008DF801105D7A8DF80250FDB10DF10201E2
:100B2000002300F1784E9AB20EEB030CBCF5003FA7
:100B30000BD210F803C001F801CF01331FFA83FC78
:100B40006545F0D8013292B204E002208DF8010030
:100B50008DF802300332D5B2FFF723BB2A46F9E7FE
:100B600001218DF801108DF8022000228DF803205C
:100B70008DF8041003228DF805200625FFF711BB20
:100B800001238DF801300225FFF70BBB4B1EDBB2B2
:100B9000032B974B9ABF03EB4103B3F85032B3F8E2
:100BA0005232C3F307218DF801108DF8023003256E
:100BB000FFF7F7BA02F012FD01280ED08D4A137824
:100BC00043F0800313708C4A136843F040031360B2
:100BD000FDF796FC0125FFF7E4BA844B1B79FF2B48
:100BE00008D0002BEFD1184602F01AFD01228DF833
:100BF0000020E8E7804B1B6813F0400FE3D17E4AEA
:100C0000136843F48073136001228DF80020DAE743
:100C1000774AD17F8DF8001092F820208DF80120BE
:100C20000225FFF7BEBA724BDD700025FFF7B9BA97
:100C30006F4AD3820025FFF7B4BA6D4B1D740025AF
:100C4000FFF7AFBA6A4A92F82E3043F0010382F8F8
:100C50002E300025FFF7A5BA654A13860025FFF759
:100C6000A0BA634A93860025FFF79BBA604B5A8E61
:100C7000C2F307218DF800108DF801200225FFF73F
:100C800090BA012D0AD0FF2D12D0DDB1594A537808
:100C900043F0010353700025FFF783BA544A92F8DA
:100CA0002E3043F0020382F82E300025FFF779BA88
:100CB0004F4A92F82E3043F0040382F82E3000257C
:100CC000FFF76FBA4A4A92F82E3043F0080382F8D1
:100CD0002E30FFF766BA464A92F82E5015F01005EE
:100CE00040F0DD865383FFF75CBA414BDA8FC2F3E5
:100CF00006218DF800108DF801200225FFF751BA6A
:100D00003B4AD3860025FFF74CBA394AD3860025E3
:100D1000FFF747BA364A53820025FFF742BA344AF2
:100D200093820025FFF73DBA314A93810025FFF7F2
:100D300038BA2F4B9B7F8DF801300225FFF731BA6F
:100D4000B12D6ED89F2D16D9A03D112D69D8DFE8A1
:100D500015F0240033004000550068006200680070
:100D60006800680068006800680068006800680043
:100D70006800A906A9064DB1012D52D11E4A13687B
:100D800043F4003313600025FFF70BBA1A4A1368C7
:100D900043F480331360FFF704BA154A92F8213008
:100DA00023F0200323F0040382F82130012002F015
:100DB00067FC0025FFF7F5B90D4A92F8213043F0A2
:100DC000240382F82130012002F05AFC0025FFF7AD
:100DD000E8B9074A92F8213043F0040382F8213041
:100DE000012002F04DFC0025FFF7DBB930040020A4
:100DF0002C1700202C0400205C150020C34A92F818
:100E0000213043F0200382F82130012002F038FC29
:100E10000025FFF7C6B9BE4B01225A600025FFF737
:100E2000C0B9BC4A537843F0010353700025FFF763
:100E3000B8B9B64B1B78172B09D0192B07D0B34B79
:100E400093F821208DF800200125FFF7AAB9AF4AB9
:100E500092F823108DF8001092F821208DF80120CF
:100E60000225FFF79EB9A94B83F822500025FFF712
:100E700098B9A64A1383928FC2F306218DF8001009
:100E80008DF801200225FFF78CB9A04A13830025B5
:100E9000FFF787B96DB9A04B1B78702B04D00025E4
:100EA0009D4B1D70FFF77DB99B4BF7221A70FFF722
:100EB00078B9012DF3D1984B1B78F72BEFD1964BD6
:100EC000AA221A700025FFF76CB9904B9A8FC2F3D3
:100ED00006218DF800108DF801200225FFF761B979
:100EE0008A4B9A8FC2F306218DF800108DF80120ED
:100EF0000225FFF756B9854AA2F840300025FFF7D2
:100F000050B9824B93F842208DF800200125FFF75D
:100F100048B97E4B93F83A208DF800200125FFF761
:100F200040B97A4B1B78162B16D000228DF8012081
:100F30008DF802208DF803208DF80420DC218DF837
:100F400005108DF806208DF807108DF808208DF813
:100F500009200A25FFF725B96C4BB3F85E3223B997
:100F60006A4B4FF47A72A3F85E22684BB3F85E22A4
:100F7000C2F307218DF800108DF8012000228DF8B2
:100F800002208DF803208DF804208DF805208DF8BF
:100F900006208DF807208DF808208DF809208DF89F
:100FA0000A208DF80B208DF80C208DF80D200E25D1
:100FB000FFF7F7B8554B0022A3F84C221B781D2BE6
:100FC00002D00025FFF7EDB8504B012283F8B22084
:100FD000524A1288A3F84E22A3F84C220025FFF7AC
:100FE000E0B899B2494AA2F84C3213781D2B02D0CE
:100FF0000025FFF7D6B845F2EE7399420CD9134697
:1010000045F2EE72A3F84C22404BB3F84C22A3F801
:101010004E220025FFF7C5B81D29F5D83B4B1E22EF
:10102000A3F84C22F0E7394B1B781D2B0BD0374B24
:10103000B3F84E22C2F307218DF800108DF801207D
:101040000225FFF7AEB8314B93F8B230192B0FD908
:101050002E4B192283F8B2202C4B93F8B220013A80
:101060002E4931F81220A3F84E22A3F84C22DEE7D5
:10107000002BF1D1254B012283F8B220ECE7112D92
:1010800020D0802D10D0012D40F00F851F4A92F8FE
:10109000513243F0010303F0FD0323F0040382F80F
:1010A00051320025FFF77DB8184A92F8513203F00B
:1010B000FE0343F0020323F0040382F851320025BB
:1010C000FFF76FB8114A92F8513203F0FC0343F076
:1010D000040382F851320025FFF763B80B4B93F8F5
:1010E00050228DF800200125FFF75BB8074B1B78D5
:1010F0001D2B15D0054BB3F84E22C2F307218DF8F6
:1011000000108DF801200225FFF74BB82C170020A6
:101110005C1500202C04002089010020989701080C
:101120009F4B93F8B230192B0FD99D4B192283F89E
:10113000B2209B4B93F8B220013A9A4931F8122021
:10114000A3F84E22A3F84C22D4E7002BF1D1944B04
:10115000012283F8B220ECE7914AD3810025FFF702
:1011600020B88F4B93F8213013F0010F8C4B14BF34
:101170001A8D5A8DC2F307218DF800108DF80120C9
:101180000225FFF70EB8864B1B781D2B0BD0844A27
:10119000D38A9385C3F307218DF800108DF80130B1
:1011A0000225FEF7FEBF7E4B9B8D7F4AA2FB0323E9
:1011B000DB08EFE77A4BDA8CC2F307218DF80010D9
:1011C0008DF801200225FEF7ECBF754A1278162A29
:1011D00005D0734A9384D3840025FEF7E2BF734B96
:1011E0001B7813F0030F12D06D4B0DF1010203F1C8
:1011F000220093F8A31202F8011C93F8A21202F83D
:10120000021B02339842F4D12225FEF7CABF002206
:101210008DF80120624A92F8C3128DF8021092F8FC
:10122000C2228DF803200425FEF7BBBF5C4B1B7860
:10123000162B10D08DF8006000228DF801208DF85B
:101240000220022E74D0032E6CD0012E00F0838079
:101250000325FEF7A6BF8DF8006000228DF801205F
:101260008DF80220731E052B00F22284DFE813F0B4
:1012700006001F0020042004300049004C4B9B79DD
:10128000222B0ED8002B00F016844A494A4A1344F8
:1012900011F8010F02F8010B9A42F9D10325FEF76C
:1012A00080BF02238DF801300325FEF77ABF232388
:1012B0008DF802304048431E0DF10202223013F82F
:1012C000011F02F8011F8342F9D12625FEF769BFED
:1012D000374B9B79222B0ED8002B00F0EF8335493A
:1012E000364A134411F8010F02F8010B9A42F9D162
:1012F0000325FEF756BF02238DF801300325FEF7C4
:1013000050BF23238DF802302C48431E0DF10202FA
:10131000223013F8011F02F8011F8342F9D126255C
:10132000FEF73FBFFA238DF802303546FEF739BF8E
:10133000234B18788DF8020048B1224B0DF10202C0
:10134000C51813F8011B02F8011FAB42F9D1033095
:10135000C5B2FEF726BF164B9979194B197041B1EA
:10136000144A184B194412F8010F03F8010B8B4271
:10137000F9D1012002F098F90325FEF712BF084BBE
:101380001B781B2B22D01D2B00F08080162B6CD0DD
:101390000D4A137843F0800313700025FEF701BF58
:1013A0002C17002098970108CDCCCCCC140300203A
:1013B0003004002036040020B01500208C150020D9
:1013C000CF160020D41500202C0400201B238DF8FC
:1013D000003007238DF80130C549B1F8AA30C3F3B6
:1013E00007228DF802208DF80330003B18BF01233F
:1013F0008DF804300F46B1F8AE30C3F307228DF8F4
:1014000005208DF806308B8DC3F307228DF8072059
:101410008DF80830B1F8B430C3F307228DF80920F5
:101420008DF80A3091F84B028DF80B0091F84A3292
:101430008DF80C3091F849328DF80D3091F8483222
:101440008DF80E3003F0A6FAC0F307428DF80F2096
:10145000C0F307228DF810208DF8110097F8B230F4
:101460008DF812301325FEF79CBEA24BA04A03F163
:101470001200197982F86912597982F868120233D8
:1014800002328342F5D10025FEF78BBE1D228DF876
:10149000002007228DF801209549B1F8AA20C2F357
:1014A00007208DF802008DF80320003A18BF0122B2
:1014B0008DF8042000228DF805208DF80620888DF7
:1014C000C0F307258DF807508DF808008DF8092026
:1014D0008DF80A208DF80B208DF80C208DF80D204A
:1014E0008DF80E208DF80F208DF810208DF811202A
:1014F00091F8B2208DF812201325FEF752BE7C4BD6
:101500001B78162B10D17A4A6B460DF1120092F817
:101510006912197092F868125970023202338342CC
:10152000F5D11225FEF73DBE724BDA79704880F88E
:1015300048229B7980F8493280F84A1280F84B5251
:101540000546D0F8480203F039FA85F8B2000025C4
:10155000FEF727BE664B1B781B2B0BD01D2B36D0FE
:10156000162B29D0644A137843F0800313700025AA
:10157000FEF717BE5E4B83F8B650AD00ADB2002D3E
:101580003EF40FAEC82D28BFC8255A4A0021507915
:1015900083F8B700907983F8B800D07983F8B90060
:1015A000107A83F8BA0004310432043388B28542D9
:1015B000EDD80025FEF7F5BD16228DF801208DF837
:1015C000022001228DF803200425FEF7EABD484BD6
:1015D00083F8B650AD00ADB2002D3EF4E2ADC82D9B
:1015E00028BFC825434A0021507983F8B700907975
:1015F00083F8B800D07983F8B900107A83F8BA007C
:1016000004310432043388B28542EDD80025FEF758
:10161000C8BD374B93F8B630BBB91523344A82F8AE
:10162000B63054258DF80030344A6B46691E89B2B5
:101630000DF10100084412F8011F03F8011F834255
:10164000F9D10135EDB2FEF7ACBD294B93F8B630B8
:101650008DF800309D00002BE6D1F2E70DF1FF334D
:101660000DF10E01002203F8012F8B42FBD10F2553
:10167000FEF797BD1E4B83F87F51AD00ADB2002D34
:101680003EF48FADC82D28BFC8251A4A00215079D5
:1016900083F88001907983F88101D07983F8820101
:1016A000107A83F8830104310432043388B285420E
:1016B000EDD80025FEF775BD0D4B93F87F310BBBC0
:1016C00007230B4A82F87F311C258DF800300C4A25
:1016D0006B46691E89B20DF10100084412F8011F22
:1016E00003F8011F8342F9D10135EDB2FEF759BD70
:1016F0002C170020300400202C040020E2170020CA
:10170000AB180020D34B93F87F318DF800309D004B
:10171000002BDCD1E8E7CF4B83F8B2501B781B2BB2
:1017200009D01D2B1ED0CC4A137843F080031370D0
:101730000025FEF736BD2A46192D28BF1922D2B240
:10174000C44B83F8B220D3F84812C44850F8222082
:1017500062F31701C3F84812042283F84B220025D4
:10176000FEF71FBD192D11D9BA4B192283F8B220EB
:10177000B84B93F8B220013AB94931F81220A3F8D6
:101780004E22A3F84C220025FEF70BBD002DEFD111
:10179000B04B012283F8B220EAE7AE4BB3F86222E5
:1017A000C2F307218DF800108DF801200425FEF703
:1017B000F8BCA84AA2F864320025FEF7F2BCA54B9B
:1017C000B3F86422C2F307218DF800108DF80120D0
:1017D0000225FEF7E6BC9F4A1278162A02D00025A1
:1017E000FEF7DFBCDFF86CC28CF87C5261F30F238C
:1017F0009C4A917961F30703ACF87E32D17961F3A9
:101800000F23117A61F30703ACF88032517A00207C
:1018100061F31F60917A61F31740D17A61F30F2071
:10182000117B61F30700CCF88402517B61F30F2335
:10183000917B61F30703ACF88832D17B61F30F230E
:10184000117C61F30703ACF88A32517C8CF88C125E
:10185000917C61F30F23D17C61F30703ACF88E32E6
:10186000117D61F30F23517D61F30703ACF89032D2
:10187000917D61F30F23D17D61F30703ACF89232C0
:10188000117E61F30F23517E61F30703ACF89432AC
:10189000937E63F31F60D37E63F31740137F63F37C
:1018A0000F20537F63F30700CCF89802937F63F314
:1018B0001F60D37F63F3174092F8203063F30F204B
:1018C00092F8213063F30700CCF89C020025FEF764
:1018D00068BC604B1B78162B02D00025FEF761BC5C
:1018E0006B460DF10A01032203F8012B8B42FBD159
:1018F000584991F87C228DF80A20B1F87E22C2F373
:1019000007208DF80B008DF80C20B1F88022C2F36F
:1019100007208DF80D008DF80E20D1F88422C2F337
:1019200007608DF80F00C2F307408DF81000C2F376
:1019300007208DF811008DF81220B1F88822C2F32B
:1019400007208DF813008DF81420B1F88A22C2F315
:1019500007208DF815008DF8162091F88C228DF84F
:101960001720B1F88E22C2F307208DF818008DF8E9
:101970001920B1F89022C2F307208DF81A008DF8D3
:101980001B20B1F89222C2F307208DF81C008DF8BD
:101990001D20B1F89422C2F307208DF81E008DF8A7
:1019A0001F20D1F89822C2F307608DF82000C2F3FF
:1019B00007408DF82100C2F307208DF822008DF832
:1019C0002320D1F89C22C2F307618DF82410C2F3C2
:1019D00007418DF82510C2F307218DF826108DF8E8
:1019E00027202825FEF7DDBB1A4B1B78162B02D0CB
:1019F0000025FEF7D6BB64238DF801300225FEF7E3
:101A0000D0BB144A1278162A02D00025FEF7C9BBB3
:101A1000104AA2F866320025FEF7C3BB0D4B1B78B7
:101A2000162B02D00025FEF7BCBB0A4BB3F866228A
:101A3000C2F307218DF800108DF801200225FEF772
:101A4000B0BB0125FEF7ADBB0025FEF7AABB002504
:101A5000FEF7A7BB2C1700202C040020CC97010810
:101A600098970108300400200025FEF79ABB002556
:101A7000FEF797BB0025FEF794BB0025FEF791BB50
:101A80000025FEF78EBB0025FEF78BBB3546FEF723
:101A900088BB1125FEF785BB0925FEF782BB002513
:101AA000FEF77FBB0025FEF77CBB0025FEF779BB68
:101AB0000325FEF776BB0325FEF773BB0325FEF770
:101AC00070BB40F241410120FCF748FD184A1378F1
:101AD00023F080031370174A137843F02003137028
:101AE00031462046FEF714FBFEF761BB40F242414F
:101AF0000120FCF733FD0E4A537823F001035370A5
:101B00000C4A137843F020031370FEF756BB0A4BC0
:101B1000DA7800212046FCF763FB01283EF490AB05
:101B200000263546FEF73DBB0025FEF73ABB00BF59
:101B30002C0400201C030020300400202DE9F0417B
:101B4000FDF706F8754B1B6813F0020F40F0C180DB
:101B5000FDF7FCF8002840F0C080714B1B681D4663
:101B60001B78002B40F08880FDF7FEF8042840F237
:101B7000B48000236B4C23702846FDF7DBF8037814
:101B80006370694A1278162A79D0FF2B7ED1FDF74F
:101B9000D1F80478A046634DAC70FDF7CBF806464B
:101BA00003781F46EB70002C78D0FDF7DDF83B1D65
:101BB000834280F292803046FDF7BCF887B1594AE3
:101BC000D31C1D467B1E9BB2043213441E46037871
:101BD0002C4604F8013F2546FDF7ACF8B442F6D197
:101BE0000478391D4F48FCF7DBFAA04265D14B4B16
:101BF0001A6822F004021A601A6822F008021A60B9
:101C000000224A490A704A490A804A490A801A68E9
:101C100042F400721A601A6822F480621A60464B1D
:101C200093F90130002B42DB3C4B1B6813F0400F53
:101C300004D13A4A136843F0080313604046FEF7A4
:101C400097FA3B4605331D4600231C46FDF74EF927
:101C5000234601331C469D42F8D1304B1A6842F0AE
:101C600002021A601A68C2F3001282F001021968B7
:101C700062F30411196030E0FDF738F92DE0002B14
:101C800085D0FDF733F9FDF731F926E0FDF72EF9A0
:101C9000244B5B780BB3FDF729F91EE0FDF726F91D
:101CA000214B1B78162B18D0FDF720F915E0224A9E
:101CB000537823F080035370B6E7FDF717F9174BFD
:101CC0001A6822F002021A601A6822F001021A60F1
:101CD00003E01A4B1B78052B01D8BDE8F0810F4AB1
:101CE000136823F002031360136843F001031446E2
:101CF000136001220221124805F09AFD236823F0A7
:101D0000200323600D4B00221A700E4B01221A8013
:101D10000D4B19780D4805F065FEDEE75C150020D7
:101D20004C0D0020300400202C170020150300204B
:101D300018030020160300202C0400201D0300209F
:101D40000008014026040020200300200044004039
:101D500008B5054B9B6813F0040F02D1FFF7EEFEA8
:101D600008BDFEF7C1F8FBE75C15002010B582B096
:101D7000B74B00221A80B74B01225A70B64A531E45
:101D8000F932002103F8011F9342FBD1FA238DF8A9
:101D90000730B24C224601216420FCF7CBF82178B1
:101DA000FA2940D922460023237001216420FCF740
:101DB00075F8A94AFA216520FCF770F8A54C22466F
:101DC00001213220FCF7B6F804F121020121332071
:101DD000FCF7B0F80DF1070201213820FCF7AAF852
:101DE0009DF80730012B23D8994A138843F0040348
:101DF00013809B4A137823F010031370954B1B78C4
:101E0000162B40D8092B1CD8082B2BD8082B29D8E7
:101E1000DFE813F0880190018C01AE01940190017C
:101E200090012B0128018C4A6520FCF783F8C5E757
:101E300001218DF807100DF107023820FCF72EF86C
:101E4000D2E7A3F10A01C9B201228A4040F6171174
:101E50000A4240F0128112F4C06F40F00681162B46
:101E600000F0A5817B4C13232370224601213220F0
:101E7000FCF714F82246002302F8213F0121332009
:101E8000FCF70CF8F9E0212B1CD8173B0A2BE9D8FA
:101E900001A252F823F000BF7B2001086B2001084B
:101EA0007B200108651E01089F210108651E0108AD
:101EB000152201087B2001087B2001087B200108F6
:101EC0006B200108A02BCDD9A13B5E2BCAD801A263
:101ED00052F823F07B2001087B2001087B200108B9
:101EE000651E0108651E0108651E0108651E0108C2
:101EF000651E0108651E0108651E0108651E0108B2
:101F0000651E0108651E0108651E0108651E0108A1
:101F1000651E0108651E0108651E0108651E010891
:101F2000651E0108651E0108651E0108651E010881
:101F3000651E0108651E0108651E0108651E010871
:101F4000651E0108651E0108651E0108651E010861
:101F50007B2001087B2001087B2001087B200108F1
:101F60007B2001087B2001087B2001087B200108E1
:101F70007B2001087B200108651E0108651E010801
:101F8000651E0108651E0108651E0108651E010821
:101F90007B2001087B200108651E0108651E0108E1
:101FA000651E0108651E0108651E0108651E010801
:101FB000651E0108651E0108651E0108651E0108F1
:101FC000651E0108651E0108651E0108651E0108E1
:101FD0007B2001087B200108651E0108651E0108A1
:101FE000651E0108651E0108651E0108651E0108C1
:101FF000651E0108651E0108651E0108651E0108B1
:10200000651E0108651E0108651E0108651E0108A0
:102010007B2001087B2001087B200108651E010848
:10202000651E0108651E0108651E0108651E010880
:10203000651E0108651E0108651E0108651E010870
:10204000651E01088D2101087B20010895210108EA
:10205000101A00202C170020D4150020CF160020C5
:10206000D8020020734B02225A709DF8073023B922
:10207000714A138823F0040313806E4A3C23A2F8AC
:1020800044306E490B7823F001030B70FF2382F874
:102090003A3000236A490B806A490B806A490B80F9
:1020A0006A490B806A490B806A490B606A494FF4A0
:1020B000FA6008600A21D170684969480860694976
:1020C0000B604FF48C7111854FF4A5715185664CEE
:1020D0004FF4C872E280E381238204F114020221EA
:1020E0003420FBF727FF04F1160202213620FBF70C
:1020F00021FFA38A5A1E92B242F20D718A4288BF12
:1021000064236382594B00211980012363704A4B79
:102110001A8842F020021A801A8842F001021A80BE
:1021200002B010BD504B00221A70A6E74E4B0122A0
:102130001A70A2E74C4B02221A709EE73D4B152203
:1021400083F8B620072283F87F21494A137843F0A9
:1021500010031370444B93F82830012B03D9424BE2
:1021600003221A7089E7404B012283F82820F6E702
:102170003D4B93F82830012B03D93B4B03221A70B7
:102180007BE7394B012283F82820F6E7364B022201
:102190001A7072E7274B002283F850226DE7254B17
:1021A000152283F8B620072283F87F2165E7214BAB
:1021B0000022A3F86422A3F8662241F6DC11A3F8FA
:1021C0005E12A3F86022A3F862224FF47A71A3F89A
:1021D000A212A3F8A412A3F868223C21A3F86A1261
:1021E0004FF4FA51A3F86C1240F6EB01A3F86E120B
:1021F0000421A3F870120921A3F872125021A3F848
:1022000074126421A3F876120121A3F87812A3F8BE
:102210005C2232E7074B012283F8B22044F250627D
:10222000A3F84E22A3F84C22034A138843F0040378
:10223000138022E72C170020101A00202804002009
:10224000F41900200A1A0020081A0020021A00209F
:10225000001A002028170020241700202017002033
:10226000C02709001C170020E0160020DC16002003
:10227000D8020020024A138801339BB213807047B2
:10228000F4190020064B1B889BB28342044B1B8829
:102290003CBF9BB203F1FF33181A80B2704700BFF6
:1022A000F41900205E4B1A780B2A04BF002183F832
:1022B00023105B4B93F8213003F06003602B0ED0AA
:1022C000574B93F8213013F0040F10D013F0080F80
:1022D00014D0534943F0900381F821300EE0504967
:1022E00091F8213043F0800381F82130E8E74C4930
:1022F00091F8213023F0100381F82130172A06D0FD
:10230000192A04D0474B5B68012B27D07047444BF8
:1023100093F8233013F0010F0CD0414B93F8232096
:1023200042F0020283F8232093F8212042F0800239
:1023300083F821203A4B93F8233013F0040FE1D0B7
:10234000374B93F8232042F0080283F8232093F8B8
:10235000212042F0800283F82120D3E7314B002274
:102360005A602F4B93F8233013F0010F06D12C4AFB
:1023700092F8233023F0020382F82330284B93F89D
:10238000233013F0040F06D1254A92F8233023F0AE
:10239000080382F82330224B93F8213013F0240FE6
:1023A0001BD01F4A92F8232012F00A0FAED103F07F
:1023B0006C02242A1FD003F06402202A25D003F0E7
:1023C0002C03042BA2D1164A92F8213003F0EF031C
:1023D00023F0800382F8213098E7114B93F82330E3
:1023E00013F00A0F92D10E4A92F8213023F08003A5
:1023F00082F8213070470A4A92F8213003F0EF0347
:1024000023F0800382F821307047054A92F821308A
:1024100003F0EF0323F0800382F82130704700BF00
:102420002C1700205C15002008B5254B93F82120BF
:1024300093F92130002B2DDB224B1B6813F4803FD6
:1024400018D1204B1B6813F4003F36D01D490B6890
:1024500023F400330B6012F0010F06D0184A92F8F3
:10246000213023F0010382F82130154B0022A3F81C
:10247000442022E013490B6823F480330B6012F0F0
:10248000010F1AD10E4A92F8213043F0010382F86D
:10249000213012E00B4B1A6822F480321A601A685D
:1024A00022F400321A60064B93F8212022F0010238
:1024B00083F821200022A3F84420FFF7F3FE08BD93
:1024C0002C1700205C15002008B50221284805F0D3
:1024D000A9F920BB274B1A88274B1A80274B18884D
:1024E000FFF7D0FE322808D9224B1A88234B1A80D6
:1024F000234B1B8813F0400F00D008BD204A1388DF
:1025000043F040031380012004F0DCF91D4A5378A6
:1025100043F0200353701C4B00221A70EDE7154B5B
:102520001A88164B1A80144B1888FFF7ABFE322816
:10253000E3D9104B1A88104B1A80114B1B8813F0EB
:10254000400FDAD0104B1B78AA2BD6D10C4A138837
:1025500023F0400313800B4A537823F02003537079
:10256000002004F0AFF940F2B220FCF7DDFAC4E736
:10257000000C0140F4190020001A0020021A00206B
:10258000101A00202C0400208901002008B5022127
:10259000264805F047F918BB254B1A88254B1A80A9
:1025A000254B1888FFF76EFE32282CD9204B1A884D
:1025B000214B1A80214B1B8813F0400F23D11F4A57
:1025C000138843F040031380012004F07BF91C4A78
:1025D000537843F0200353701A4B00221A7012E014
:1025E000134B1A88144B1A80124B1888FFF74AFEB7
:1025F000322808D90E4B1A880E4B1A800F4B1B88B5
:1026000013F0400F00D108BD0C4A138823F040039B
:1026100013800B4A537823F020035370002004F0FA
:1026200051F940F2B220FCF77FFAECE7000C0140D0
:10263000F4190020001A0020021A0020101A0020AD
:102640002C0400208901002008B56F4B93F82E3030
:1026500013F0020F76D06C4A92F82E3003F0FD038F
:1026600043F0100382F82E30684B47F6EB621A8075
:10267000654B93F82E3013F0010F25D0644B93F97E
:102680000030002B08DB634B1A88634B1A80604ACA
:10269000137843F0800313705F4B1888FFF7F2FD47
:1026A00044F6206398420FD95A4B1A885A4B1A8025
:1026B000574A137823F080031370534A92F82E3050
:1026C00023F0010382F82E304F4B93F82E3013F095
:1026D000100F14D14C4B9A8E4C4B1B889A420ED043
:1026E0008CBFD31A9B1A4D4981FB0301DB17C3EB47
:1026F000A10305339BB24A490B80444B1A80494BD6
:102700001888FFF7BFFD64281BD9424B1A88454B38
:102710001A803D4B5B8E3D4A128893425ED046D272
:102720003B48017841F0020121F0010101703C4970
:1027300009880B449BB29A4227BF334A5386324BD7
:102740005A8608BD13F0040F0DD02F4A92F82E3090
:1027500003F0FB0343F0100382F82E302B4B40F6BE
:10276000CC421A8084E713F0080F81D0264A92F8F1
:102770002E3003F0F70323F0100382F82E30528B33
:10278000C2F30E0221490A8013F0010F9CD0204AA7
:10279000137823F0800313701B4A92F82E3023F035
:1027A000010382F82E301C4B00221A8060E7184883
:1027B000017801F0FD0141F001010170184909881B
:1027C0008B4208D95B1A9BB29A4299BF0E4A538634
:1027D0000D4B5A86B5E70C4B5A86B2E70C4B1B786B
:1027E00013F0020F04D00A4A137823F00203137087
:1027F000074B1B7813F0010FA3D0054A137823F081
:10280000010313709DE700BF2C1700200A1A002057
:102810001C030020F41900207A1500206766666604
:102820000C1A0020081A002008B5634B93F85132A7
:1028300013F0010F33D0604A92F8513223F00103B4
:1028400082F851325D4B4FF4FA721A805C4B188853
:10285000FFF718FDB0F5FA7F20D95A4B1A88584B6C
:102860001A80554BB3F84E32544A128893426BD0BB
:102870004ED2514890F8501241F0010101F0FD0193
:1028800021F0040180F8501214339BB29A4227BF02
:102890000246A2F84E32484BA3F84E2208BD13F070
:1028A000020F0AD0444A92F8513223F0020382F810
:1028B0005132424B00221A80C8E713F0040F0BD0AC
:1028C0003D4B93F82E2022F0080283F82E20B3F817
:1028D0004E223A4B1A80B9E713F0080F0AD0364A55
:1028E00092F8513223F0080382F85132334B002220
:1028F0001A80ABE7304AB2F84C32B2F84E229A4214
:10290000A4D02E4A12889A421CBF2C4A13809DE7FD
:10291000294890F8501201F0FE0141F0020121F027
:10292000040180F85012142B0AD9143B9BB29A422E
:1029300099BF0246A2F84E321F4BA3F84E22ADE7D4
:102940001D4BA3F84E22A9E71B4A92F8502212F021
:10295000010F06D0184991F8502222F0010281F8A7
:102960005022154A92F8502212F0020F06D0124956
:1029700091F8502222F0020281F850220E4A92F879
:10298000502212F0040F06D00B4991F8502222F089
:10299000040281F850223BB9074A92F8503243F0C2
:1029A000080382F8503279E7034A92F8503223F054
:1029B000080382F8503271E72C170020061A002015
:1029C000041A0020F419002010B5844B93F82E301F
:1029D00013F0020F2AD0814A92F82E3003F0FD0343
:1029E00043F0100382F82E307D4B40F6B8421A8037
:1029F0007A4B93F82E3013F010031C463BD1774BE3
:102A00005B8BC3F30E01764A1288914236D05DDDAE
:102A10008B1A744A82FB0302DB17C3EBA203053354
:102A20009BB2714A13806E4B198027E013F0040F9C
:102A30000CD06A4A92F82E3003F0FB0343F01003E7
:102A400082F82E30664B14221A80D1E713F0080F5B
:102A5000CED0624A92F82E3003F0F70323F0100331
:102A600082F82E30528BC2F30E025D490A8013F0B9
:102A700010031C4602D05C4B14221A805B4B188852
:102A8000FFF700FCC8287BD9594B1A88574B1A808E
:102A9000524BDB8FC3F30E03514A11888B4244D053
:102AA00024DA5448027842F0020222F00102027055
:102AB0004D4A128813449AB2C3F30E0399420FDBB6
:102AC000464BD98F62F30E01D98759E0521A454817
